{
  "_format": "hh-sol-artifact-1",
  "contractName": "Land",
  "sourceName": "contracts/landContrat.sol",
  "abi": [
    {
      "inputs": [],
      "stateMutability": "nonpayable",
      "type": "constructor"
    },
    {
      "inputs": [
        {
          "internalType": "address",
          "name": "",
          "type": "address"
        }
      ],
      "name": "InspectorMapping",
      "outputs": [
        {
          "internalType": "uint256",
          "name": "id",
          "type": "uint256"
        },
        {
          "internalType": "address",
          "name": "_addr",
          "type": "address"
        },
        {
          "internalType": "string",
          "name": "name",
          "type": "string"
        },
        {
          "internalType": "uint256",
          "name": "age",
          "type": "uint256"
        },
        {
          "internalType": "string",
          "name": "designation",
          "type": "string"
        },
        {
          "internalType": "string",
          "name": "city",
          "type": "string"
        }
      ],
      "stateMutability": "view",
      "type": "function"
    },
    {
      "inputs": [
        {
          "internalType": "uint256",
          "name": "",
          "type": "uint256"
        }
      ],
      "name": "LandRequestMapping",
      "outputs": [
        {
          "internalType": "uint256",
          "name": "reqId",
          "type": "uint256"
        },
        {
          "internalType": "address payable",
          "name": "sellerId",
          "type": "address"
        },
        {
          "internalType": "address payable",
          "name": "buyerId",
          "type": "address"
        },
        {
          "internalType": "uint256",
          "name": "landId",
          "type": "uint256"
        },
        {
          "internalType": "enum Land.reqStatus",
          "name": "requestStatus",
          "type": "uint8"
        },
        {
          "internalType": "bool",
          "name": "isPaymentDone",
          "type": "bool"
        }
      ],
      "stateMutability": "view",
      "type": "function"
    },
    {
      "inputs": [],
      "name": "ReturnAllLandIncpectorList",
      "outputs": [
        {
          "internalType": "address[]",
          "name": "",
          "type": "address[]"
        }
      ],
      "stateMutability": "view",
      "type": "function"
    },
    {
      "inputs": [],
      "name": "ReturnAllLandList",
      "outputs": [
        {
          "internalType": "uint256[]",
          "name": "",
          "type": "uint256[]"
        }
      ],
      "stateMutability": "view",
      "type": "function"
    },
    {
      "inputs": [],
      "name": "ReturnAllUserList",
      "outputs": [
        {
          "internalType": "address[]",
          "name": "",
          "type": "address[]"
        }
      ],
      "stateMutability": "view",
      "type": "function"
    },
    {
      "inputs": [
        {
          "internalType": "address",
          "name": "",
          "type": "address"
        }
      ],
      "name": "UserMapping",
      "outputs": [
        {
          "internalType": "address",
          "name": "id",
          "type": "address"
        },
        {
          "internalType": "string",
          "name": "name",
          "type": "string"
        },
        {
          "internalType": "uint256",
          "name": "age",
          "type": "uint256"
        },
        {
          "internalType": "string",
          "name": "city",
          "type": "string"
        },
        {
          "internalType": "string",
          "name": "aadharNumber",
          "type": "string"
        },
        {
          "internalType": "string",
          "name": "panNumber",
          "type": "string"
        },
        {
          "internalType": "string",
          "name": "email",
          "type": "string"
        },
        {
          "internalType": "bool",
          "name": "isUserVerified",
          "type": "bool"
        }
      ],
      "stateMutability": "view",
      "type": "function"
    },
    {
      "inputs": [
        {
          "internalType": "uint256",
          "name": "_requestId",
          "type": "uint256"
        }
      ],
      "name": "acceptRequest",
      "outputs": [],
      "stateMutability": "nonpayable",
      "type": "function"
    },
    {
      "inputs": [
        {
          "internalType": "uint256",
          "name": "_area",
          "type": "uint256"
        },
        {
          "internalType": "string",
          "name": "_address",
          "type": "string"
        },
        {
          "internalType": "uint256",
          "name": "landPrice",
          "type": "uint256"
        },
        {
          "internalType": "string",
          "name": "_allLatiLongi",
          "type": "string"
        },
        {
          "internalType": "uint256",
          "name": "_propertyPID",
          "type": "uint256"
        },
        {
          "internalType": "string",
          "name": "_surveyNum",
          "type": "string"
        },
        {
          "internalType": "string",
          "name": "_document",
          "type": "string"
        }
      ],
      "name": "addLand",
      "outputs": [],
      "stateMutability": "nonpayable",
      "type": "function"
    },
    {
      "inputs": [
        {
          "internalType": "address",
          "name": "_addr",
          "type": "address"
        },
        {
          "internalType": "string",
          "name": "_name",
          "type": "string"
        },
        {
          "internalType": "uint256",
          "name": "_age",
          "type": "uint256"
        },
        {
          "internalType": "string",
          "name": "_designation",
          "type": "string"
        },
        {
          "internalType": "string",
          "name": "_city",
          "type": "string"
        }
      ],
      "name": "addLandInspector",
      "outputs": [
        {
          "internalType": "bool",
          "name": "",
          "type": "bool"
        }
      ],
      "stateMutability": "nonpayable",
      "type": "function"
    },
    {
      "inputs": [
        {
          "internalType": "address",
          "name": "_addr",
          "type": "address"
        }
      ],
      "name": "changeContractOwner",
      "outputs": [],
      "stateMutability": "nonpayable",
      "type": "function"
    },
    {
      "inputs": [],
      "name": "documentId",
      "outputs": [
        {
          "internalType": "uint256",
          "name": "",
          "type": "uint256"
        }
      ],
      "stateMutability": "view",
      "type": "function"
    },
    {
      "inputs": [
        {
          "internalType": "address",
          "name": "_addr",
          "type": "address"
        }
      ],
      "name": "isContractOwner",
      "outputs": [
        {
          "internalType": "bool",
          "name": "",
          "type": "bool"
        }
      ],
      "stateMutability": "view",
      "type": "function"
    },
    {
      "inputs": [
        {
          "internalType": "address",
          "name": "_id",
          "type": "address"
        }
      ],
      "name": "isLandInspector",
      "outputs": [
        {
          "internalType": "bool",
          "name": "",
          "type": "bool"
        }
      ],
      "stateMutability": "view",
      "type": "function"
    },
    {
      "inputs": [
        {
          "internalType": "uint256",
          "name": "id",
          "type": "uint256"
        }
      ],
      "name": "isLandVerified",
      "outputs": [
        {
          "internalType": "bool",
          "name": "",
          "type": "bool"
        }
      ],
      "stateMutability": "view",
      "type": "function"
    },
    {
      "inputs": [
        {
          "internalType": "address",
          "name": "_addr",
          "type": "address"
        }
      ],
      "name": "isUserRegistered",
      "outputs": [
        {
          "internalType": "bool",
          "name": "",
          "type": "bool"
        }
      ],
      "stateMutability": "view",
      "type": "function"
    },
    {
      "inputs": [
        {
          "internalType": "address",
          "name": "id",
          "type": "address"
        }
      ],
      "name": "isUserVerified",
      "outputs": [
        {
          "internalType": "bool",
          "name": "",
          "type": "bool"
        }
      ],
      "stateMutability": "view",
      "type": "function"
    },
    {
      "inputs": [
        {
          "internalType": "uint256",
          "name": "id",
          "type": "uint256"
        }
      ],
      "name": "landPriceFun",
      "outputs": [
        {
          "internalType": "uint256",
          "name": "",
          "type": "uint256"
        }
      ],
      "stateMutability": "view",
      "type": "function"
    },
    {
      "inputs": [
        {
          "internalType": "uint256",
          "name": "",
          "type": "uint256"
        }
      ],
      "name": "lands",
      "outputs": [
        {
          "internalType": "uint256",
          "name": "id",
          "type": "uint256"
        },
        {
          "internalType": "uint256",
          "name": "area",
          "type": "uint256"
        },
        {
          "internalType": "string",
          "name": "landAddress",
          "type": "string"
        },
        {
          "internalType": "uint256",
          "name": "landPrice",
          "type": "uint256"
        },
        {
          "internalType": "string",
          "name": "allLatitudeLongitude",
          "type": "string"
        },
        {
          "internalType": "uint256",
          "name": "propertyPID",
          "type": "uint256"
        },
        {
          "internalType": "string",
          "name": "physicalSurveyNumber",
          "type": "string"
        },
        {
          "internalType": "string",
          "name": "document",
          "type": "string"
        },
        {
          "internalType": "bool",
          "name": "isforSell",
          "type": "bool"
        },
        {
          "internalType": "address payable",
          "name": "ownerAddress",
          "type": "address"
        },
        {
          "internalType": "bool",
          "name": "isLandVerified",
          "type": "bool"
        }
      ],
      "stateMutability": "view",
      "type": "function"
    },
    {
      "inputs": [],
      "name": "landsCount",
      "outputs": [
        {
          "internalType": "uint256",
          "name": "",
          "type": "uint256"
        }
      ],
      "stateMutability": "view",
      "type": "function"
    },
    {
      "inputs": [
        {
          "internalType": "uint256",
          "name": "id",
          "type": "uint256"
        }
      ],
      "name": "makeItforSell",
      "outputs": [],
      "stateMutability": "nonpayable",
      "type": "function"
    },
    {
      "inputs": [
        {
          "internalType": "uint256",
          "name": "_requestId",
          "type": "uint256"
        }
      ],
      "name": "makePayment",
      "outputs": [],
      "stateMutability": "payable",
      "type": "function"
    },
    {
      "inputs": [
        {
          "internalType": "address payable",
          "name": "_reveiver",
          "type": "address"
        }
      ],
      "name": "makePaymentTestFun",
      "outputs": [],
      "stateMutability": "payable",
      "type": "function"
    },
    {
      "inputs": [
        {
          "internalType": "address",
          "name": "id",
          "type": "address"
        }
      ],
      "name": "myAllLands",
      "outputs": [
        {
          "internalType": "uint256[]",
          "name": "",
          "type": "uint256[]"
        }
      ],
      "stateMutability": "view",
      "type": "function"
    },
    {
      "inputs": [],
      "name": "myReceivedLandRequests",
      "outputs": [
        {
          "internalType": "uint256[]",
          "name": "",
          "type": "uint256[]"
        }
      ],
      "stateMutability": "view",
      "type": "function"
    },
    {
      "inputs": [],
      "name": "mySentLandRequests",
      "outputs": [
        {
          "internalType": "uint256[]",
          "name": "",
          "type": "uint256[]"
        }
      ],
      "stateMutability": "view",
      "type": "function"
    },
    {
      "inputs": [
        {
          "internalType": "string",
          "name": "_name",
          "type": "string"
        },
        {
          "internalType": "uint256",
          "name": "_age",
          "type": "uint256"
        },
        {
          "internalType": "string",
          "name": "_city",
          "type": "string"
        },
        {
          "internalType": "string",
          "name": "_aadharNumber",
          "type": "string"
        },
        {
          "internalType": "string",
          "name": "_panNumber",
          "type": "string"
        },
        {
          "internalType": "string",
          "name": "_email",
          "type": "string"
        }
      ],
      "name": "registerUser",
      "outputs": [],
      "stateMutability": "nonpayable",
      "type": "function"
    },
    {
      "inputs": [
        {
          "internalType": "uint256",
          "name": "_requestId",
          "type": "uint256"
        }
      ],
      "name": "rejectRequest",
      "outputs": [],
      "stateMutability": "nonpayable",
      "type": "function"
    },
    {
      "inputs": [
        {
          "internalType": "address",
          "name": "_addr",
          "type": "address"
        }
      ],
      "name": "removeLandInspector",
      "outputs": [],
      "stateMutability": "nonpayable",
      "type": "function"
    },
    {
      "inputs": [
        {
          "internalType": "uint256",
          "name": "id",
          "type": "uint256"
        }
      ],
      "name": "requesteStatus",
      "outputs": [
        {
          "internalType": "bool",
          "name": "",
          "type": "bool"
        }
      ],
      "stateMutability": "view",
      "type": "function"
    },
    {
      "inputs": [
        {
          "internalType": "uint256",
          "name": "_landId",
          "type": "uint256"
        }
      ],
      "name": "requestforBuy",
      "outputs": [],
      "stateMutability": "nonpayable",
      "type": "function"
    },
    {
      "inputs": [],
      "name": "returnPaymentDoneList",
      "outputs": [
        {
          "internalType": "uint256[]",
          "name": "",
          "type": "uint256[]"
        }
      ],
      "stateMutability": "view",
      "type": "function"
    },
    {
      "inputs": [
        {
          "internalType": "uint256",
          "name": "_requestId",
          "type": "uint256"
        },
        {
          "internalType": "string",
          "name": "documentUrl",
          "type": "string"
        }
      ],
      "name": "transferOwnership",
      "outputs": [
        {
          "internalType": "bool",
          "name": "",
          "type": "bool"
        }
      ],
      "stateMutability": "nonpayable",
      "type": "function"
    },
    {
      "inputs": [],
      "name": "userCount",
      "outputs": [
        {
          "internalType": "uint256",
          "name": "",
          "type": "uint256"
        }
      ],
      "stateMutability": "view",
      "type": "function"
    },
    {
      "inputs": [
        {
          "internalType": "uint256",
          "name": "_id",
          "type": "uint256"
        }
      ],
      "name": "verifyLand",
      "outputs": [],
      "stateMutability": "nonpayable",
      "type": "function"
    },
    {
      "inputs": [
        {
          "internalType": "address",
          "name": "_userId",
          "type": "address"
        }
      ],
      "name": "verifyUser",
      "outputs": [],
      "stateMutability": "nonpayable",
      "type": "function"
    }
  ],
  "bytecode": "0x608060405234801561001057600080fd5b50336000806101000a81548173ffffffffffffffffffffffffffffffffffffffff021916908373ffffffffffffffffffffffffffffffffffffffff16021790555061431b806100606000396000f3fe6080604052600436106102045760003560e01c8063a38a229f11610118578063d251839b116100a0578063de1176881161006f578063de117688146107a8578063e165af87146107e5578063e261f1e514610822578063f9c43bdf14610869578063fa0245491461089257610204565b8063d251839b146106d3578063d3b368c0146106fe578063d61ff68c14610727578063d8513de41461076b57610204565b8063c26e11eb116100e7578063c26e11eb146105ca578063c6dcdc37146105f3578063ccfdc19b14610630578063cfb0ba7a14610659578063d196ebf21461069657610204565b8063a38a229f146104f7578063a846fc8f14610520578063ace417e01461054b578063b10a30ed1461058857610204565b80634d8131201161019b5780636cbf6cf81161016a5780636cbf6cf81461041f5780637517e00f1461045c57806378f7c83f14610485578063995a8d96146104b05780639c32e3b4146104cc57610204565b80634d8131201461036d5780635114cb5214610396578063553a998d146103b257806364efa002146103dd57610204565b80632d7788db116101d75780632d7788db146102c75780633ead67b5146102f0578063499701b2146103195780634ba1f0981461034457610204565b806307973ccf14610209578063163f7522146102345780631c9afd0f1461027157806323393d771461029c575b600080fd5b34801561021557600080fd5b5061021e6108cf565b60405161022b919061317f565b60405180910390f35b34801561024057600080fd5b5061025b6004803603810190610256919061320c565b6108d5565b6040516102689190613254565b60405180910390f35b34801561027d57600080fd5b5061028661093c565b604051610293919061317f565b60405180910390f35b3480156102a857600080fd5b506102b1610942565b6040516102be919061332d565b60405180910390f35b3480156102d357600080fd5b506102ee60048036038101906102e9919061337b565b6109ac565b005b3480156102fc57600080fd5b506103176004803603810190610312919061320c565b610a5c565b005b34801561032557600080fd5b5061032e610b2d565b60405161033b919061332d565b60405180910390f35b34801561035057600080fd5b5061036b6004803603810190610366919061337b565b610bc2565b005b34801561037957600080fd5b50610394600480360381019061038f919061320c565b610c72565b005b6103b060048036038101906103ab919061337b565b610ce2565b005b3480156103be57600080fd5b506103c7610ee2565b6040516103d49190613466565b60405180910390f35b3480156103e957600080fd5b5061040460048036038101906103ff919061320c565b610f82565b60405161041696959493929190613527565b60405180910390f35b34801561042b57600080fd5b506104466004803603810190610441919061337b565b611176565b6040516104539190613254565b60405180910390f35b34801561046857600080fd5b50610483600480360381019061047e919061320c565b6111a3565b005b34801561049157600080fd5b5061049a611500565b6040516104a7919061317f565b60405180910390f35b6104ca60048036038101906104c591906135db565b611506565b005b3480156104d857600080fd5b506104e1611550565b6040516104ee919061332d565b60405180910390f35b34801561050357600080fd5b5061051e6004803603810190610519919061373d565b6115e5565b005b34801561052c57600080fd5b506105356118f1565b604051610542919061332d565b60405180910390f35b34801561055757600080fd5b50610572600480360381019061056d919061320c565b61195b565b60405161057f9190613254565b60405180910390f35b34801561059457600080fd5b506105af60048036038101906105aa919061337b565b6119b4565b6040516105c1969594939291906138dc565b60405180910390f35b3480156105d657600080fd5b506105f160048036038101906105ec919061337b565b611a4a565b005b3480156105ff57600080fd5b5061061a6004803603810190610615919061393d565b611aea565b6040516106279190613254565b60405180910390f35b34801561063c57600080fd5b5061065760048036038101906106529190613a0c565b611e06565b005b34801561066557600080fd5b50610680600480360381019061067b919061337b565b61206a565b60405161068d919061317f565b60405180910390f35b3480156106a257600080fd5b506106bd60048036038101906106b8919061320c565b61208a565b6040516106ca919061332d565b60405180910390f35b3480156106df57600080fd5b506106e8612121565b6040516106f59190613466565b60405180910390f35b34801561070a57600080fd5b506107256004803603810190610720919061337b565b6121c1565b005b34801561073357600080fd5b5061074e6004803603810190610749919061320c565b6124b6565b604051610762989796959493929190613b1e565b60405180910390f35b34801561077757600080fd5b50610792600480360381019061078d919061337b565b6127d3565b60405161079f9190613254565b60405180910390f35b3480156107b457600080fd5b506107cf60048036038101906107ca919061320c565b612800565b6040516107dc9190613254565b60405180910390f35b3480156107f157600080fd5b5061080c6004803603810190610807919061320c565b612869565b6040516108199190613254565b60405180910390f35b34801561082e57600080fd5b506108496004803603810190610844919061337b565b6128d0565b6040516108609b9a99989796959493929190613bbf565b60405180910390f35b34801561087557600080fd5b50610890600480360381019061088b919061337b565b612b84565b005b34801561089e57600080fd5b506108b960048036038101906108b49190613c86565b612bc8565b6040516108c69190613254565b60405180910390f35b60025481565b6000600c60008373ffffffffffffffffffffffffffffffffffffffff1673ffffffffffffffffffffffffffffffffffffffff16815260200190815260200160002060009054906101000a900460ff16156109325760019050610937565b600090505b919050565b60035481565b606060126000600181526020019081526020016000208054806020026020016040519081016040528092919081815260200182805480156109a257602002820191906000526020600020905b81548152602001906001019080831161098e575b5050505050905090565b3373ffffffffffffffffffffffffffffffffffffffff16600f600083815260200190815260200160002060010160009054906101000a900473ffffffffffffffffffffffffffffffffffffffff1673ffffffffffffffffffffffffffffffffffffffff1614610a1a57600080fd5b6002600f600083815260200190815260200160002060040160006101000a81548160ff02191690836004811115610a5457610a53613865565b5b021790555050565b60008054906101000a900473ffffffffffffffffffffffffffffffffffffffff1673ffffffffffffffffffffffffffffffffffffffff163373ffffffffffffffffffffffffffffffffffffffff1614610aea576040517f08c379a0000000000000000000000000000000000000000000000000000000008152600401610ae190613d2e565b60405180910390fd5b806000806101000a81548173ffffffffffffffffffffffffffffffffffffffff021916908373ffffffffffffffffffffffffffffffffffffffff16021790555050565b6060601060003373ffffffffffffffffffffffffffffffffffffffff1673ffffffffffffffffffffffffffffffffffffffff168152602001908152602001600020805480602002602001604051908101604052809291908181526020018280548015610bb857602002820191906000526020600020905b815481526020019060010190808311610ba4575b5050505050905090565b3373ffffffffffffffffffffffffffffffffffffffff16600f600083815260200190815260200160002060010160009054906101000a900473ffffffffffffffffffffffffffffffffffffffff1673ffffffffffffffffffffffffffffffffffffffff1614610c3057600080fd5b6001600f600083815260200190815260200160002060040160006101000a81548160ff02191690836004811115610c6a57610c69613865565b5b021790555050565b610c7b33612869565b610c8457600080fd5b6001600960008373ffffffffffffffffffffffffffffffffffffffff1673ffffffffffffffffffffffffffffffffffffffff16815260200190815260200160002060070160006101000a81548160ff02191690831515021790555050565b3373ffffffffffffffffffffffffffffffffffffffff16600f600083815260200190815260200160002060020160009054906101000a900473ffffffffffffffffffffffffffffffffffffffff1673ffffffffffffffffffffffffffffffffffffffff16148015610d9a575060016004811115610d6257610d61613865565b5b600f600083815260200190815260200160002060040160009054906101000a900460ff166004811115610d9857610d97613865565b5b145b610da357600080fd5b6003600f600083815260200190815260200160002060040160006101000a81548160ff02191690836004811115610ddd57610ddc613865565b5b0217905550600e6000600f600084815260200190815260200160002060030154815260200190815260200160002060080160019054906101000a900473ffffffffffffffffffffffffffffffffffffffff1673ffffffffffffffffffffffffffffffffffffffff166108fc349081150290604051600060405180830381858888f19350505050158015610e74573d6000803e3d6000fd5b506001600f600083815260200190815260200160002060040160016101000a81548160ff021916908315150217905550601360006001815260200190815260200160002081908060018154018082558091505060019003906000526020600020016000909190919091505550565b6060600b600060018152602001908152602001600020805480602002602001604051908101604052809291908181526020018280548015610f7857602002820191906000526020600020905b8160009054906101000a900473ffffffffffffffffffffffffffffffffffffffff1673ffffffffffffffffffffffffffffffffffffffff1681526020019060010190808311610f2e575b5050505050905090565b60066020528060005260406000206000915090508060000154908060010160009054906101000a900473ffffffffffffffffffffffffffffffffffffffff1690806002018054610fd190613d7d565b80601f0160208091040260200160405190810160405280929190818152602001828054610ffd90613d7d565b801561104a5780601f1061101f5761010080835404028352916020019161104a565b820191906000526020600020905b81548152906001019060200180831161102d57829003601f168201915b50505050509080600301549080600401805461106590613d7d565b80601f016020809104026020016040519081016040528092919081815260200182805461109190613d7d565b80156110de5780601f106110b3576101008083540402835291602001916110de565b820191906000526020600020905b8154815290600101906020018083116110c157829003601f168201915b5050505050908060050180546110f390613d7d565b80601f016020809104026020016040519081016040528092919081815260200182805461111f90613d7d565b801561116c5780601f106111415761010080835404028352916020019161116c565b820191906000526020600020905b81548152906001019060200180831161114f57829003601f168201915b5050505050905086565b6000600e600083815260200190815260200160002060080160159054906101000a900460ff169050919050565b60008054906101000a900473ffffffffffffffffffffffffffffffffffffffff1673ffffffffffffffffffffffffffffffffffffffff163373ffffffffffffffffffffffffffffffffffffffff1614611231576040517f08c379a000000000000000000000000000000000000000000000000000000000815260040161122890613dfa565b60405180910390fd5b600860008273ffffffffffffffffffffffffffffffffffffffff1673ffffffffffffffffffffffffffffffffffffffff16815260200190815260200160002060009054906101000a900460ff166112bd576040517f08c379a00000000000000000000000000000000000000000000000000000000081526004016112b490613e66565b60405180910390fd5b6000600860008373ffffffffffffffffffffffffffffffffffffffff1673ffffffffffffffffffffffffffffffffffffffff16815260200190815260200160002060006101000a81548160ff0219169083151502179055506000600760006001815260200190815260200160002080549050905060005b818110156114fb578273ffffffffffffffffffffffffffffffffffffffff166007600060018152602001908152602001600020828154811061137957611378613e86565b5b9060005260206000200160009054906101000a900473ffffffffffffffffffffffffffffffffffffffff1673ffffffffffffffffffffffffffffffffffffffff16036114e85760076000600181526020019081526020016000206001836113e09190613ee4565b815481106113f1576113f0613e86565b5b9060005260206000200160009054906101000a900473ffffffffffffffffffffffffffffffffffffffff166007600060018152602001908152602001600020828154811061144257611441613e86565b5b9060005260206000200160006101000a81548173ffffffffffffffffffffffffffffffffffffffff021916908373ffffffffffffffffffffffffffffffffffffffff16021790555060076000600181526020019081526020016000208054806114ae576114ad613f18565b5b6001900381819060005260206000200160006101000a81549073ffffffffffffffffffffffffffffffffffffffff021916905590556114fb565b80806114f390613f47565b915050611334565b505050565b60045481565b8073ffffffffffffffffffffffffffffffffffffffff166108fc349081150290604051600060405180830381858888f1935050505015801561154c573d6000803e3d6000fd5b5050565b6060601160003373ffffffffffffffffffffffffffffffffffffffff1673ffffffffffffffffffffffffffffffffffffffff1681526020019081526020016000208054806020026020016040519081016040528092919081815260200182805480156115db57602002820191906000526020600020905b8154815260200190600101908083116115c7575b5050505050905090565b600c60003373ffffffffffffffffffffffffffffffffffffffff1673ffffffffffffffffffffffffffffffffffffffff16815260200190815260200160002060009054906101000a900460ff161561163c57600080fd5b6001600c60003373ffffffffffffffffffffffffffffffffffffffff1673ffffffffffffffffffffffffffffffffffffffff16815260200190815260200160002060006101000a81548160ff021916908315150217905550600260008154809291906116a790613f47565b9190505550600b600060018152602001908152602001600020339080600181540180825580915050600190039060005260206000200160009091909190916101000a81548173ffffffffffffffffffffffffffffffffffffffff021916908373ffffffffffffffffffffffffffffffffffffffff16021790555033600a6000600254815260200190815260200160002060006101000a81548173ffffffffffffffffffffffffffffffffffffffff021916908373ffffffffffffffffffffffffffffffffffffffff1602179055506040518061010001604052803373ffffffffffffffffffffffffffffffffffffffff16815260200187815260200186815260200185815260200184815260200183815260200182815260200160001515815250600960003373ffffffffffffffffffffffffffffffffffffffff1673ffffffffffffffffffffffffffffffffffffffff16815260200190815260200160002060008201518160000160006101000a81548173ffffffffffffffffffffffffffffffffffffffff021916908373ffffffffffffffffffffffffffffffffffffffff1602179055506020820151816001019081611863919061413b565b50604082015181600201556060820151816003019081611883919061413b565b506080820151816004019081611899919061413b565b5060a08201518160050190816118af919061413b565b5060c08201518160060190816118c5919061413b565b5060e08201518160070160006101000a81548160ff021916908315150217905550905050505050505050565b6060601360006001815260200190815260200160002080548060200260200160405190810160405280929190818152602001828054801561195157602002820191906000526020600020905b81548152602001906001019080831161193d575b5050505050905090565b6000600960008373ffffffffffffffffffffffffffffffffffffffff1673ffffffffffffffffffffffffffffffffffffffff16815260200190815260200160002060070160009054906101000a900460ff169050919050565b600f6020528060005260406000206000915090508060000154908060010160009054906101000a900473ffffffffffffffffffffffffffffffffffffffff16908060020160009054906101000a900473ffffffffffffffffffffffffffffffffffffffff16908060030154908060040160009054906101000a900460ff16908060040160019054906101000a900460ff16905086565b3373ffffffffffffffffffffffffffffffffffffffff16600e600083815260200190815260200160002060080160019054906101000a900473ffffffffffffffffffffffffffffffffffffffff1673ffffffffffffffffffffffffffffffffffffffff1614611ab857600080fd5b6001600e600083815260200190815260200160002060080160006101000a81548160ff02191690831515021790555050565b60008060009054906101000a900473ffffffffffffffffffffffffffffffffffffffff1673ffffffffffffffffffffffffffffffffffffffff163373ffffffffffffffffffffffffffffffffffffffff1614611b7b576040517f08c379a0000000000000000000000000000000000000000000000000000000008152600401611b7290614259565b60405180910390fd5b600860008773ffffffffffffffffffffffffffffffffffffffff1673ffffffffffffffffffffffffffffffffffffffff16815260200190815260200160002060009054906101000a900460ff1615611c08576040517f08c379a0000000000000000000000000000000000000000000000000000000008152600401611bff906142c5565b60405180910390fd5b6001600860008873ffffffffffffffffffffffffffffffffffffffff1673ffffffffffffffffffffffffffffffffffffffff16815260200190815260200160002060006101000a81548160ff0219169083151502179055506007600060018152602001908152602001600020869080600181540180825580915050600190039060005260206000200160009091909190916101000a81548173ffffffffffffffffffffffffffffffffffffffff021916908373ffffffffffffffffffffffffffffffffffffffff1602179055506040518060c0016040528060015481526020018773ffffffffffffffffffffffffffffffffffffffff16815260200186815260200185815260200184815260200183815250600660008873ffffffffffffffffffffffffffffffffffffffff1673ffffffffffffffffffffffffffffffffffffffff1681526020019081526020016000206000820151816000015560208201518160010160006101000a81548173ffffffffffffffffffffffffffffffffffffffff021916908373ffffffffffffffffffffffffffffffffffffffff1602179055506040820151816002019081611dbf919061413b565b50606082015181600301556080820151816004019081611ddf919061413b565b5060a0820151816005019081611df5919061413b565b509050506001905095945050505050565b611e0f3361195b565b611e1857600080fd5b60036000815480929190611e2b90613f47565b919050555060405180610160016040528060035481526020018881526020018781526020018681526020018581526020018481526020018381526020018281526020016000151581526020013373ffffffffffffffffffffffffffffffffffffffff16815260200160001515815250600e6000600354815260200190815260200160002060008201518160000155602082015181600101556040820151816002019081611ed8919061413b565b50606082015181600301556080820151816004019081611ef8919061413b565b5060a0820151816005015560c0820151816006019081611f18919061413b565b5060e0820151816007019081611f2e919061413b565b506101008201518160080160006101000a81548160ff0219169083151502179055506101208201518160080160016101000a81548173ffffffffffffffffffffffffffffffffffffffff021916908373ffffffffffffffffffffffffffffffffffffffff1602179055506101408201518160080160156101000a81548160ff021916908315150217905550905050600d60003373ffffffffffffffffffffffffffffffffffffffff1673ffffffffffffffffffffffffffffffffffffffff16815260200190815260200160002060035490806001815401808255809150506001900390600052602060002001600090919091909150556012600060018152602001908152602001600020600354908060018154018082558091505060019003906000526020600020016000909190919091505550505050505050565b6000600e6000838152602001908152602001600020600301549050919050565b6060600d60008373ffffffffffffffffffffffffffffffffffffffff1673ffffffffffffffffffffffffffffffffffffffff16815260200190815260200160002080548060200260200160405190810160405280929190818152602001828054801561211557602002820191906000526020600020905b815481526020019060010190808311612101575b50505050509050919050565b606060076000600181526020019081526020016000208054806020026020016040519081016040528092919081815260200182805480156121b757602002820191906000526020600020905b8160009054906101000a900473ffffffffffffffffffffffffffffffffffffffff1673ffffffffffffffffffffffffffffffffffffffff168152602001906001019080831161216d575b5050505050905090565b6121ca3361195b565b80156121db57506121da81611176565b5b6121e457600080fd5b600560008154809291906121f790613f47565b91905055506040518060c001604052806005548152602001600e600084815260200190815260200160002060080160019054906101000a900473ffffffffffffffffffffffffffffffffffffffff1673ffffffffffffffffffffffffffffffffffffffff1681526020013373ffffffffffffffffffffffffffffffffffffffff1681526020018281526020016000600481111561229757612296613865565b5b815260200160001515815250600f600060055481526020019081526020016000206000820151816000015560208201518160010160006101000a81548173ffffffffffffffffffffffffffffffffffffffff021916908373ffffffffffffffffffffffffffffffffffffffff16021790555060408201518160020160006101000a81548173ffffffffffffffffffffffffffffffffffffffff021916908373ffffffffffffffffffffffffffffffffffffffff1602179055506060820151816003015560808201518160040160006101000a81548160ff0219169083600481111561238557612384613865565b5b021790555060a08201518160040160016101000a81548160ff02191690831515021790555090505060106000600e600084815260200190815260200160002060080160019054906101000a900473ffffffffffffffffffffffffffffffffffffffff1673ffffffffffffffffffffffffffffffffffffffff1673ffffffffffffffffffffffffffffffffffffffff1681526020019081526020016000206005549080600181540180825580915050600190039060005260206000200160009091909190915055601160003373ffffffffffffffffffffffffffffffffffffffff1673ffffffffffffffffffffffffffffffffffffffff168152602001908152602001600020600554908060018154018082558091505060019003906000526020600020016000909190919091505550565b60096020528060005260406000206000915090508060000160009054906101000a900473ffffffffffffffffffffffffffffffffffffffff16908060010180546124ff90613d7d565b80601f016020809104026020016040519081016040528092919081815260200182805461252b90613d7d565b80156125785780601f1061254d57610100808354040283529160200191612578565b820191906000526020600020905b81548152906001019060200180831161255b57829003601f168201915b50505050509080600201549080600301805461259390613d7d565b80601f01602080910402602001604051908101604052809291908181526020018280546125bf90613d7d565b801561260c5780601f106125e15761010080835404028352916020019161260c565b820191906000526020600020905b8154815290600101906020018083116125ef57829003601f168201915b50505050509080600401805461262190613d7d565b80601f016020809104026020016040519081016040528092919081815260200182805461264d90613d7d565b801561269a5780601f1061266f5761010080835404028352916020019161269a565b820191906000526020600020905b81548152906001019060200180831161267d57829003601f168201915b5050505050908060050180546126af90613d7d565b80601f01602080910402602001604051908101604052809291908181526020018280546126db90613d7d565b80156127285780601f106126fd57610100808354040283529160200191612728565b820191906000526020600020905b81548152906001019060200180831161270b57829003601f168201915b50505050509080600601805461273d90613d7d565b80601f016020809104026020016040519081016040528092919081815260200182805461276990613d7d565b80156127b65780601f1061278b576101008083540402835291602001916127b6565b820191906000526020600020905b81548152906001019060200180831161279957829003601f168201915b5050505050908060070160009054906101000a900460ff16905088565b6000600f600083815260200190815260200160002060040160019054906101000a900460ff169050919050565b60008060009054906101000a900473ffffffffffffffffffffffffffffffffffffffff1673ffffffffffffffffffffffffffffffffffffffff168273ffffffffffffffffffffffffffffffffffffffff160361285f5760019050612864565b600090505b919050565b6000600860008373ffffffffffffffffffffffffffffffffffffffff1673ffffffffffffffffffffffffffffffffffffffff16815260200190815260200160002060009054906101000a900460ff16156128c657600190506128cb565b600090505b919050565b600e6020528060005260406000206000915090508060000154908060010154908060020180546128ff90613d7d565b80601f016020809104026020016040519081016040528092919081815260200182805461292b90613d7d565b80156129785780601f1061294d57610100808354040283529160200191612978565b820191906000526020600020905b81548152906001019060200180831161295b57829003601f168201915b50505050509080600301549080600401805461299390613d7d565b80601f01602080910402602001604051908101604052809291908181526020018280546129bf90613d7d565b8015612a0c5780601f106129e157610100808354040283529160200191612a0c565b820191906000526020600020905b8154815290600101906020018083116129ef57829003601f168201915b505050505090806005015490806006018054612a2790613d7d565b80601f0160208091040260200160405190810160405280929190818152602001828054612a5390613d7d565b8015612aa05780601f10612a7557610100808354040283529160200191612aa0565b820191906000526020600020905b815481529060010190602001808311612a8357829003601f168201915b505050505090806007018054612ab590613d7d565b80601f0160208091040260200160405190810160405280929190818152602001828054612ae190613d7d565b8015612b2e5780601f10612b0357610100808354040283529160200191612b2e565b820191906000526020600020905b815481529060010190602001808311612b1157829003601f168201915b5050505050908060080160009054906101000a900460ff16908060080160019054906101000a900473ffffffffffffffffffffffffffffffffffffffff16908060080160159054906101000a900460ff1690508b565b612b8d33612869565b612b9657600080fd5b6001600e600083815260200190815260200160002060080160156101000a81548160ff02191690831515021790555050565b6000612bd333612869565b612bdc57600080fd5b60001515600f600085815260200190815260200160002060040160019054906101000a900460ff16151503612c145760009050613160565b60046000815480929190612c2790613f47565b91905055506004600f600085815260200190815260200160002060040160006101000a81548160ff02191690836004811115612c6657612c65613865565b5b0217905550600d6000600f600086815260200190815260200160002060020160009054906101000a900473ffffffffffffffffffffffffffffffffffffffff1673ffffffffffffffffffffffffffffffffffffffff1673ffffffffffffffffffffffffffffffffffffffff168152602001908152602001600020600f60008581526020019081526020016000206003015490806001815401808255809150506001900390600052602060002001600090919091909150556000600d6000600f600087815260200190815260200160002060010160009054906101000a900473ffffffffffffffffffffffffffffffffffffffff1673ffffffffffffffffffffffffffffffffffffffff1673ffffffffffffffffffffffffffffffffffffffff16815260200190815260200160002080549050905060005b8181101561303957600f600086815260200190815260200160002060030154600d6000600f600089815260200190815260200160002060010160009054906101000a900473ffffffffffffffffffffffffffffffffffffffff1673ffffffffffffffffffffffffffffffffffffffff1673ffffffffffffffffffffffffffffffffffffffff1681526020019081526020016000208281548110612e4357612e42613e86565b5b90600052602060002001540361302657600d6000600f600088815260200190815260200160002060010160009054906101000a900473ffffffffffffffffffffffffffffffffffffffff1673ffffffffffffffffffffffffffffffffffffffff1673ffffffffffffffffffffffffffffffffffffffff168152602001908152602001600020600183612ed59190613ee4565b81548110612ee657612ee5613e86565b5b9060005260206000200154600d6000600f600089815260200190815260200160002060010160009054906101000a900473ffffffffffffffffffffffffffffffffffffffff1673ffffffffffffffffffffffffffffffffffffffff1673ffffffffffffffffffffffffffffffffffffffff1681526020019081526020016000208281548110612f7857612f77613e86565b5b9060005260206000200181905550600d6000600f600088815260200190815260200160002060010160009054906101000a900473ffffffffffffffffffffffffffffffffffffffff1673ffffffffffffffffffffffffffffffffffffffff1673ffffffffffffffffffffffffffffffffffffffff16815260200190815260200160002080548061300b5761300a613f18565b5b60019003818190600052602060002001600090559055613039565b808061303190613f47565b915050612d9d565b5082600e6000600f60008881526020019081526020016000206003015481526020019081526020016000206007019081613073919061413b565b506000600e6000600f600088815260200190815260200160002060030154815260200190815260200160002060080160006101000a81548160ff021916908315150217905550600f600085815260200190815260200160002060020160009054906101000a900473ffffffffffffffffffffffffffffffffffffffff16600e6000600f600088815260200190815260200160002060030154815260200190815260200160002060080160016101000a81548173ffffffffffffffffffffffffffffffffffffffff021916908373ffffffffffffffffffffffffffffffffffffffff16021790555060019150505b92915050565b6000819050919050565b61317981613166565b82525050565b60006020820190506131946000830184613170565b92915050565b6000604051905090565b600080fd5b600080fd5b600073ffffffffffffffffffffffffffffffffffffffff82169050919050565b60006131d9826131ae565b9050919050565b6131e9816131ce565b81146131f457600080fd5b50565b600081359050613206816131e0565b92915050565b600060208284031215613222576132216131a4565b5b6000613230848285016131f7565b91505092915050565b60008115159050919050565b61324e81613239565b82525050565b60006020820190506132696000830184613245565b92915050565b600081519050919050565b600082825260208201905092915050565b6000819050602082019050919050565b6132a481613166565b82525050565b60006132b6838361329b565b60208301905092915050565b6000602082019050919050565b60006132da8261326f565b6132e4818561327a565b93506132ef8361328b565b8060005b8381101561332057815161330788826132aa565b9750613312836132c2565b9250506001810190506132f3565b5085935050505092915050565b6000602082019050818103600083015261334781846132cf565b905092915050565b61335881613166565b811461336357600080fd5b50565b6000813590506133758161334f565b92915050565b600060208284031215613391576133906131a4565b5b600061339f84828501613366565b91505092915050565b600081519050919050565b600082825260208201905092915050565b6000819050602082019050919050565b6133dd816131ce565b82525050565b60006133ef83836133d4565b60208301905092915050565b6000602082019050919050565b6000613413826133a8565b61341d81856133b3565b9350613428836133c4565b8060005b8381101561345957815161344088826133e3565b975061344b836133fb565b92505060018101905061342c565b5085935050505092915050565b600060208201905081810360008301526134808184613408565b905092915050565b613491816131ce565b82525050565b600081519050919050565b600082825260208201905092915050565b60005b838110156134d15780820151818401526020810190506134b6565b60008484015250505050565b6000601f19601f8301169050919050565b60006134f982613497565b61350381856134a2565b93506135138185602086016134b3565b61351c816134dd565b840191505092915050565b600060c08201905061353c6000830189613170565b6135496020830188613488565b818103604083015261355b81876134ee565b905061356a6060830186613170565b818103608083015261357c81856134ee565b905081810360a083015261359081846134ee565b9050979650505050505050565b60006135a8826131ae565b9050919050565b6135b88161359d565b81146135c357600080fd5b50565b6000813590506135d5816135af565b92915050565b6000602082840312156135f1576135f06131a4565b5b60006135ff848285016135c6565b91505092915050565b600080fd5b600080fd5b7f4e487b7100000000000000000000000000000000000000000000000000000000600052604160045260246000fd5b61364a826134dd565b810181811067ffffffffffffffff8211171561366957613668613612565b5b80604052505050565b600061367c61319a565b90506136888282613641565b919050565b600067ffffffffffffffff8211156136a8576136a7613612565b5b6136b1826134dd565b9050602081019050919050565b82818337600083830152505050565b60006136e06136db8461368d565b613672565b9050828152602081018484840111156136fc576136fb61360d565b5b6137078482856136be565b509392505050565b600082601f83011261372457613723613608565b5b81356137348482602086016136cd565b91505092915050565b60008060008060008060c0878903121561375a576137596131a4565b5b600087013567ffffffffffffffff811115613778576137776131a9565b5b61378489828a0161370f565b965050602061379589828a01613366565b955050604087013567ffffffffffffffff8111156137b6576137b56131a9565b5b6137c289828a0161370f565b945050606087013567ffffffffffffffff8111156137e3576137e26131a9565b5b6137ef89828a0161370f565b935050608087013567ffffffffffffffff8111156138105761380f6131a9565b5b61381c89828a0161370f565b92505060a087013567ffffffffffffffff81111561383d5761383c6131a9565b5b61384989828a0161370f565b9150509295509295509295565b61385f8161359d565b82525050565b7f4e487b7100000000000000000000000000000000000000000000000000000000600052602160045260246000fd5b600581106138a5576138a4613865565b5b50565b60008190506138b682613894565b919050565b60006138c6826138a8565b9050919050565b6138d6816138bb565b82525050565b600060c0820190506138f16000830189613170565b6138fe6020830188613856565b61390b6040830187613856565b6139186060830186613170565b61392560808301856138cd565b61393260a0830184613245565b979650505050505050565b600080600080600060a08688031215613959576139586131a4565b5b6000613967888289016131f7565b955050602086013567ffffffffffffffff811115613988576139876131a9565b5b6139948882890161370f565b94505060406139a588828901613366565b935050606086013567ffffffffffffffff8111156139c6576139c56131a9565b5b6139d28882890161370f565b925050608086013567ffffffffffffffff8111156139f3576139f26131a9565b5b6139ff8882890161370f565b9150509295509295909350565b600080600080600080600060e0888a031215613a2b57613a2a6131a4565b5b6000613a398a828b01613366565b975050602088013567ffffffffffffffff811115613a5a57613a596131a9565b5b613a668a828b0161370f565b9650506040613a778a828b01613366565b955050606088013567ffffffffffffffff811115613a9857613a976131a9565b5b613aa48a828b0161370f565b9450506080613ab58a828b01613366565b93505060a088013567ffffffffffffffff811115613ad657613ad56131a9565b5b613ae28a828b0161370f565b92505060c088013567ffffffffffffffff811115613b0357613b026131a9565b5b613b0f8a828b0161370f565b91505092959891949750929550565b600061010082019050613b34600083018b613488565b8181036020830152613b46818a6134ee565b9050613b556040830189613170565b8181036060830152613b6781886134ee565b90508181036080830152613b7b81876134ee565b905081810360a0830152613b8f81866134ee565b905081810360c0830152613ba381856134ee565b9050613bb260e0830184613245565b9998505050505050505050565b600061016082019050613bd5600083018e613170565b613be2602083018d613170565b8181036040830152613bf4818c6134ee565b9050613c03606083018b613170565b8181036080830152613c15818a6134ee565b9050613c2460a0830189613170565b81810360c0830152613c3681886134ee565b905081810360e0830152613c4a81876134ee565b9050613c5a610100830186613245565b613c68610120830185613856565b613c76610140830184613245565b9c9b505050505050505050505050565b60008060408385031215613c9d57613c9c6131a4565b5b6000613cab85828601613366565b925050602083013567ffffffffffffffff811115613ccc57613ccb6131a9565b5b613cd88582860161370f565b9150509250929050565b7f796f7520617265206e6f7420636f6e74726163744f776e657200000000000000600082015250565b6000613d186019836134a2565b9150613d2382613ce2565b602082019050919050565b60006020820190508181036000830152613d4781613d0b565b9050919050565b7f4e487b7100000000000000000000000000000000000000000000000000000000600052602260045260246000fd5b60006002820490506001821680613d9557607f821691505b602082108103613da857613da7613d4e565b5b50919050565b7f596f7520617265206e6f7420636f6e74726163744f776e657200000000000000600082015250565b6000613de46019836134a2565b9150613def82613dae565b602082019050919050565b60006020820190508181036000830152613e1381613dd7565b9050919050565b7f4c616e6420496e73706563746f72206e6f7420666f756e640000000000000000600082015250565b6000613e506018836134a2565b9150613e5b82613e1a565b602082019050919050565b60006020820190508181036000830152613e7f81613e43565b9050919050565b7f4e487b7100000000000000000000000000000000000000000000000000000000600052603260045260246000fd5b7f4e487b7100000000000000000000000000000000000000000000000000000000600052601160045260246000fd5b6000613eef82613166565b9150613efa83613166565b9250828203905081811115613f1257613f11613eb5565b5b92915050565b7f4e487b7100000000000000000000000000000000000000000000000000000000600052603160045260246000fd5b6000613f5282613166565b91507fffffffffffffffffffffffffffffffffffffffffffffffffffffffffffffffff8203613f8457613f83613eb5565b5b600182019050919050565b60008190508160005260206000209050919050565b60006020601f8301049050919050565b600082821b905092915050565b600060088302613ff17fffffffffffffffffffffffffffffffffffffffffffffffffffffffffffffffff82613fb4565b613ffb8683613fb4565b95508019841693508086168417925050509392505050565b6000819050919050565b600061403861403361402e84613166565b614013565b613166565b9050919050565b6000819050919050565b6140528361401d565b61406661405e8261403f565b848454613fc1565b825550505050565b600090565b61407b61406e565b614086818484614049565b505050565b5b818110156140aa5761409f600082614073565b60018101905061408c565b5050565b601f8211156140ef576140c081613f8f565b6140c984613fa4565b810160208510156140d8578190505b6140ec6140e485613fa4565b83018261408b565b50505b505050565b600082821c905092915050565b6000614112600019846008026140f4565b1980831691505092915050565b600061412b8383614101565b9150826002028217905092915050565b61414482613497565b67ffffffffffffffff81111561415d5761415c613612565b5b6141678254613d7d565b6141728282856140ae565b600060209050601f8311600181146141a55760008415614193578287015190505b61419d858261411f565b865550614205565b601f1984166141b386613f8f565b60005b828110156141db578489015182556001820191506020850194506020810190506141b6565b868310156141f857848901516141f4601f891682614101565b8355505b6001600288020188555050505b505050505050565b7f43616c6c6572206973206e6f7420746865206f776e6572000000000000000000600082015250565b60006142436017836134a2565b915061424e8261420d565b602082019050919050565b6000602082019050818103600083015261427281614236565b9050919050565b7f496e73706563746f7220616c7265616479207265676973746572656400000000600082015250565b60006142af601c836134a2565b91506142ba82614279565b602082019050919050565b600060208201905081810360008301526142de816142a2565b905091905056fea26469706673582212209731cc5e919a7529a6fa12ded208514eb9ff946c8935947f9c750ad8981e0c9864736f6c63430008120033",
  "linkReferences": {},
  "deployedLinkReferences": {}
}